:020000040800F2
:1000000008C600206102000885950008D974000820
:10001000B19400081D0E0008AD0B0108000000009F
:10002000000000000000000000000000A101000826
:100030006925000800000000FD010008E9D600085D
:100040007B0200087B0200087B0200087B0200089C
:100050007B0200087B0200086B2500087B02000879
:100060007B020008752500087F2500087B02000838
:10007000391700087B0200087B0200087B02000899
:100080007B0200087B0200087B0200087B0200085C
:10009000E50F00087B0200087B02000889250008A4
:1000A0007B0200087B0200087B0200087B0200083C
:1000B0007B0200087B0200087B0200087B0200082C
:1000C0007B0200087B0200087B0200087B0200081C
:1000D0007B02000899E000087B020008A9E0000804
:1000E0007B0200087B0200087B0200087B020008FC
:1000F0007B0200087B0200087B0200087B020008EC
:100100007B0200087B0200087B0200087B020008DB
:100110007B0200087B02000835D800087B0200083B
:100120007B02000849170008591700087B020008E5
:10013000F11F00087B0200087B0200087B02000818
:10014000491000087B0200087B020008899500081E
:10015000012000087B0200087B02000831E1000852
:100160007B0200087B0200087B0200087B0200087B
:100170007B0200087B0200087B02000800000000F0
:100180007B0200087B020008DFF810D000F0C2FA02
:1001900000480047DD2E0108AFF3008008C60020AC
:1001A0002C4B19680868B0E8F04F80F30988BFF35A
:1001B0006F8F4FF0000080F311887047000000003F
:1001C00008480068006880F308884FF0000080F35A
:1001D000148862B661B6BFF34F8FBFF36F8F00DF35
:1001E00000BF00BF08ED00E0DFF80C00016841F43B
:1001F00070010160704700BF88ED00E0EFF30980F7
:10020000BFF36F8F134B1A681EF0100F08BF20ED5D
:10021000108A20E9F04F106009B44FF0500080F3CD
:100220001188BFF34F8FBFF36F8F14F091FA4FF027
:10023000000080F3118809BC19680868B0E8F04F25
:100240001EF0100F08BFB0EC108A80F30988BFF3CE
:100250006F8F7047C40B0020EFF3058070470000DC
:100260000648804706480047FEE7FEE7FEE7FEE750
:10027000FEE7FEE7FEE7FEE7FEE7FEE7D1D7000870
:10028000890100082DE9F05F0546002092469B4653
:1002900088460646814640241BE02846414647469C
:1002A000224600F030F953465A46C01A914110D305
:1002B00011461846224600F017F92D1A67EB01087F
:1002C0004F4622460120002100F00EF917EB0009ED
:1002D0004E41201EA4F10104DFDC484631462A4687
:1002E0004346BDE8F09F40EA01039B0703D009E0C5
:1002F00008C9121F08C0042AFAD203E011F8013B12
:1003000000F8013B521EF9D27047D2B201E000F86A
:10031000012B491EFBD270470022F6E710B51346A9
:100320000A4604461946FFF7F0FF204610BD421C5E
:1003300010F8011B0029FBD1801A70472DE9FE4FF0
:10034000804681EA0300C00F0C46009021F0004176
:1003500023F00045B8EB0200A94105D240462146F2
:1003600090461C460B46024623F00040104347D0FF
:10037000270DC7F30A00C3F30A510290401A0190F7
:1003800040286BDAC3F3130040F4801B00989246B8
:1003900020B10023D2EB030A63EB0B0B0198594603
:1003A000C0F14002504600F09FF806460D46504608
:1003B0005946019A00F0B7F810EB0800614100249B
:1003C00087EA115284EAE7731A4340D0009A62B375
:1003D000019A012A4FEA075215DC001B61EB02016A
:1003E0004FF0004202EA0752CDE90042001C41F5FD
:1003F000801132462B4600F0EEF803B0BDE8F08FD6
:1004000040462146F9E7001B61EB0201001C41F563
:10041000801300185B412018A2F5001747EB030179
:1004200040EAD570B6196D4111E06D084FEA360605
:1004300045EAC0754FEA0752001B61EB0201001C40
:1004400041F5801149084FEA300000195141324608
:100450002B4603B0BDE8F04F00F0AEB80098012283
:1004600040000023D0EB020263EBE07300982146CA
:100470004FEAE074B8EB000061EB0401E9E783F0B8
:1004800000435BE781F0004158E700F0004230F0A4
:1004900000400AD0C10D01F56071C0F3160042EAB8
:1004A0000151C208400711437047002001467047C0
:1004B00001F0004330B421F0004150EA010206D0BF
:1004C0000A0DA2F56072C1F31301002A02DC30BCF0
:1004D00000207047440F44EAC104C100E01830BC5A
:1004E00000EBC25000F031B8202A04DB203A00FAB9
:1004F00002F1002070479140C2F1200320FA03F37B
:10050000194390407047202A04DB203A21FA02F078
:100510000021704721FA02F3D040C2F1200291403D
:10052000084319467047202A06DBCB17203A41FAC8
:1005300002F043EAE07306E041FA02F3D040C2F170
:10054000200291400843194670470029A8BF704710
:10055000401C490008BF20F00100704710B4B0FAF9
:1005600080FC00FA0CF050EA010404BF10BC704794
:1005700049B1CCF1200421FA04F411FA0CF118BFAE
:10058000012121430843A3EB0C01CB1D4FEA00617D
:100590004FEA102042BF002010BC704700EBC35050
:1005A00010440029A4BF10BC7047401C490008BF7C
:1005B00020F0010010BC704710B5141E73F1000448
:1005C00008DA401C41F1000192185B411A4301D145
:1005D00020F0010010BD2DE9F04D92469B4611B16F
:1005E000B1FA81F202E0B0FA80F220329046FFF7D1
:1005F0007BFF04460F4640EA0A0041EA0B015346DE
:100600005A46084313D0114653EA010019D0C8F1E5
:1006100040025046FFF777FF05460E4650465946C2
:100620004246FFF761FF084305D0012004E0204661
:100630003946BDE8F08D0020054346EAE0762C43BC
:1006400037430A986305E40AA0EB08000022FD0A7C
:1006500044EA47540A3002D500200146E9E7010583
:1006600010196941DDE9084500196941BDE8F04DFF
:10067000A2E72DE9F04D00231A461B1A8A4103DB3D
:1006800000200146BDE8F08DC1F30A52C1F3130109
:1006900041F480154FF0000BD10702D100186D41D5
:1006A000521E0027044640F2FF11384601EB620A51
:1006B0003E468046024600204FF48011FFF723FF9C
:1006C000C2197141BB1846EB0100B4EB030C75EB8A
:1006D000000C04D3E41A65EB000517460E462419F6
:1006E00008F101006D4180463428E3DDF91946EB3D
:1006F0000600091BA84103D24FF0FF32134601E068
:10070000002213461BEB070046EB0A51BDE8F04DF3
:10071000FFF752BF064C074D06E0E06840F00103CA
:1007200094E8070098471034AC42F6D3FFF730FD49
:10073000545C0108745C010870B58C1810F8015BFA
:1007400015F0070301D110F8013B2A1106D110F86A
:10075000012B03E010F8016B01F8016B5B1EF9D16E
:100760002B0705D40023521E0DD401F8013BFAE7F4
:1007700010F8013BCB1A921C03E013F8015B01F85F
:10078000015B521EF9D5A142D8D3002070BD0000F4
:10079000B7EE000A80ED000A9FED060A80ED010A1F
:1007A0009FED040A80ED020A9FED020A80ED030A24
:1007B00070470000000000002DE9F0412DED028B94
:1007C0000746B0EE408A0C4615461E46D6ED024A54
:1007D000B0EE644AD6ED014AF0EE643AD6ED004A36
:1007E000B0EE643AD5ED024AF0EE642AD5ED014A46
:1007F000B0EE642AD5ED004AF0EE641AD4ED024A58
:10080000B0EE641AD4ED014AF0EE640AD4ED004A69
:10081000B0EE640A384608F0F7F9BDEC028BBDE88B
:10082000F081000010B588B0044608F0C7F913F055
:100830002DFC11F0D7FD00F0F3FA11F09FFC00F051
:1008400019FC00F035FC24484168244888470AF028
:1008500007F800F0FBFD2248C1682248884720497C
:1008600008688047204805F0E1FD1F4805F0D4FFE7
:1008700004211D4806F070F940F2D6601A49096853
:1008800088630821184806F067F941F20400164908
:100890000968C86315480068406940F002001349C0
:1008A0000968486112480068406940F00200104938
:1008B000096848611C220F4901A8FFF714FD0021B7
:1008C00001A812F05DFB0C49086013F009FC002040
:1008D00013F09AFD08B010BD580100204417002005
:1008E0006008002000170020381500207C1300202D
:1008F000A41300206C5801082800002010B54D48B2
:10090000C07801281AD04C480068012816D14B48FD
:100910000068062803D04948006802280ED14848DC
:10092000B0F92000B0F51B7F05DB4648808B401CEA
:100930004449888302E00020424988833D48C078CA
:1009400001282BD03C480068012827D13B4800688B
:10095000052823D13A48B0F92000B0F51B7F1ADBF7
:100960003948807801280FD13748407801280BD1C9
:100970003648007890B93348808B401C31498883D1
:1009800001203249087009E02F48807830B90020F2
:100990002C49888302E000202A4988832548C078B2
:1009A000012805D02448006810B900202549888313
:1009B0002048C07801282AD120480068052826D17F
:1009C00021488078012803D11F48407801280BD0A6
:1009D0001F48002182681020904728B91C48012137
:1009E00082681020904778B11A48008801280BD1FE
:1009F0001648007858B91348808B401C11498883E9
:100A000001201249087002E000200E4988830F4837
:100A1000007801280DD110480078401C0E4908705C
:100A200008460078552804DB0020084908700A4968
:100A3000087010BD14090020CC050020100900200A
:100A4000083B002024410020283E0020350A0020D9
:100A50005801002030090020340A002010B501227E
:100A60001021024803F00AFA10BD00000000024005
:100A700010B500221021024803F000FA10BD00005A
:100A8000000002407047000010B5012211460248E4
:100A900003F0F4F910BD00000004024010B500227C
:100AA0000121024803F0EAF910BD000000040240F1
:100AB00010B543781B021BB20478234300EE103AB2
:100AC000B8EEC01A1C4BD3ED001A21EE211A81EDAD
:100AD000001AC3781B021BB28478234300EE103A3D
:100AE000B8EEC01A144BD3ED001A21EE211A81ED95
:100AF000011A43791B021BB20479234300EE103A1A
:100B0000B8EEC01A0C4BD3ED001A21EE211A81ED7C
:100B1000021A037A1B04C47943EA04238479234329
:100B200000EE903AB8EE601ADFED041A21EE211AB9
:100B300082ED001A10BD0000A000002000401C4201
:100B4000704710B50446204612F0F5F910BD10B5F7
:100B50000446204611F05EFC10BD000042781202EF
:100B600012B203781A4300EE102AF8EEC00A144AB3
:100B700092ED001A60EE810AC1ED000AC2781202FD
:100B800012B283781A4300EE102AF8EEC00A0C4A1B
:100B900092ED001A60EE810AC1ED010A427912025B
:100BA00012B203791A4300EE102AF8EEC00A044A82
:100BB00092ED001A60EE810AC1ED020A7047000052
:100BC000A400002010B50024FFF75CFFFFF7B8FF7A
:100BD00010F092FF10B144F0800402E010F0F2FE39
:100BE000044311F081F910B144F0400402E011F027
:100BF00001F90443204610BD2DE9FC4105460E468F
:100C00001746002000900190FFF732FF922000F07D
:100C1000D1F806226946122000F0ACF8FFF71EFF5B
:100C20009DF80100000200B29DF8001040EA0104A6
:100C300000EE104AB8EEC00A4C48D0ED000A20EE93
:100C4000200A86ED000A9DF80300000200B29DF81C
:100C5000021040EA010400EE104AB8EEC00A434810
:100C6000D0ED000A20EE200A86ED010A9DF805006D
:100C7000000200B29DF8041040EA010400EE104AA0
:100C8000B8EEC00A3948D0ED000A20EE200A86ED01
:100C9000020AFFF703FF08226946002000F06AF805
:100CA000FFF7F2FE9DF800000F2838D19DF80300F1
:100CB000000200B29DF8021040EA010400EE104A62
:100CC000B8EEC00A2A48D0ED000A20EE200A85EDD1
:100CD000000A9DF80500000200B29DF8041040EAE9
:100CE000010400EE104AB8EEC00A2148D0ED000A17
:100CF00020EE200A85ED010A9DF80700000200B2EF
:100D00009DF8061040EA010400EE104AB8EEC00A51
:100D10001748D0ED000A20EE200A85ED020AFFF701
:100D2000A7FEA22000F046F802226946222000F029
:100D300021F8FFF793FE9DF80000C0009DF8011018
:100D400040EA6114B4F5806F02DBA4F5006004B2E0
:100D500000EE104AF8EEC00AB4EE001AB3EE070A2D
:100D600000EE810A87ED000ABDE8FC81A0000020AA
:100D7000A400002070B506460C46154646F08000DB
:100D800000F018F806E0552000F014F82070641CFC
:100D9000681EC5B2002DF6D170BD70B504460D4673
:100DA00044F0800000F006F8552000F003F82870A9
:100DB00070BD000001B582B04FF47A70012301AA22
:100DC00002A90090024805F0B5F89DF804000EBD98
:100DD0002014002010B502461378DB00547843EA53
:100DE0006410B0F5806F02DBA0F5006318B200EE6E
:100DF000100AF8EEC00AB4EE001AB3EE070A00EECD
:100E0000810A81ED000A10BD70B505460C462846E2
:100E1000FFF7D0FF2046FFF7CDFF70BD00BFFEE714
:100E200010B50821054805F097FE00200449087018
:100E3000488008728880C88010BD0000801500209E
:100E4000BC4200204748007820B1012809D0022880
:100E500048D13FE000204349488088800872C8801C
:100E600079E040488088401C3E4988800846C08818
:100E7000012801D1002008703A4989884FF4967200
:100E800091FBF2F000EBD0714910A0EB410139B9B0
:100E90003449097A21B987203249488001200872F3
:100EA000304989884FF4967291FBF2F000EBD071D3
:100EB0004910A0EB410101290BD12A49097A0129E6
:100EC00007D100202749488008720846C088401C86
:100ED000C88040E0052023494880002088800872AF
:100EE000C88038E01F488088401C1E49888008461A
:100EF000C088032801D1002008701A4989884FF45E
:100F0000967291FBF2F000EBD0714910A0EB410119
:100F100039B91449097A21B987201249488001203A
:100F20000872104989884FF4967291FBF2F000EB39
:100F3000D0714910A0EB410101290BD10949097A6F
:100F4000012907D100200749488008720846C08857
:100F5000401CC88000BF00BF0248408802490968A1
:100F6000C8637047BC420020801500208EB000BFCF
:100F70004FF0FF3205A91948006813F095FF059C52
:100F800017480460B4F5017F0DD940F20A2084426D
:100F900009D8142209A96846FFF7A5F905A80FC8C2
:100FA00007F0C8F8E4E7882C09D1142209A968469B
:100FB000FFF799F905A80FC808F014FFD8E740F229
:100FC00001308442D4D1142209A96846FFF78BF975
:100FD00005A80FC808F03CFECAE70000100000207A
:100FE000A40B002010B508480068406900F002001A
:100FF00030B1012205480168034800F079F800BFCC
:10100000014801F0B3FF10BD7C1300201000002048
:101010008EB000BF4FF0FF3205A90A48006813F0F8
:1010200043FF059CB4F5007FF4D9B4F5017FF1D2FC
:10103000142209A96846FFF756F905A80FC806F05B
:10104000F1FFE7E71400002010B508480068406988
:1010500000F0020030B1022205480168034800F0A8
:1010600047F800BF014801F081FF10BDA413002024
:101070001400002000B58BB00020069007900120DE
:1010800008900020019002900390049005900120A8
:10109000099001A9054801F019FE044802F0FDF984
:1010A0000221024801F052FD0BB000BD7C1300206C
:1010B00000B58BB00E200A9006900020079001200A
:1010C0000890002001900290039004900590012068
:1010D000099001A9054801F0F9FD044802F0DDF985
:1010E0000221024801F032FD0BB000BDA413002024
:1010F000F0B593B007460D461646701EC4B204EB19
:10110000440000EB04101F4901EB800000F1440390
:1011100004EB440000EB041001EB800000F1280216
:101120000021384601F065FE04EB440202EB041294
:10113000144B03EB820202F1280104EBC40201AB61
:1011400003EB82001C22FFF7CEF804EBC40001A9D8
:1011500001EB800104EB440000EB0410094A02EBB0
:101160008000826C406CC1E9070204EBC40001AA54
:1011700002EB800100231A46284613F017FE13B035
:10118000F0BD00000C4300200346042B15D007DC03
:101190007BB1012B0ED0022B0DD0032B12D10BE013
:1011A000202B0BD0212B0AD0222B09D0232B09D1A5
:1011B00007E008E007E006E005E004E003E002E005
:1011C00001E000E000BF00BF002070470020704732
:1011D00010B50022044905480DF091FA044903486E
:1011E0000DF07EFA002010BDF42C0020EC18002039
:1011F000F424002070B504460D46064906480DF05B
:101200006FFA05480DF038FA02480FF0D1FC0020C3
:1012100070BD0000183E0020EC18002010B50346F9
:101220000C460021084610BD2DE9F04104460D464C
:1012300000260A48D0F8BC72D7F8140210B1012079
:10124000BDE8F0812A46214604480DF058FA0348CB
:101250000DF008FB06463046F2E70000EC180020CF
:1012600008B50146F0EE401AB0EE602AC1ED001A52
:1012700081ED012A91ED000AD1ED010A30EE600AFC
:1012800081ED020A91ED020AD1ED030A30EE600A07
:10129000D1ED050A20EE200AF0EE402A91ED060A73
:1012A000D1ED020A20EE200A8DED000A91ED020A2E
:1012B000D1ED030AB0EE001A01EE600AD1ED040A86
:1012C00030EE200AD1ED070A20EE200AB0EE403AB7
:1012D000D1ED0D0AB0EE600A684610F05BFB91EDAF
:1012E0000B0ADDED000A72EEA00A70EE830A30EE02
:1012F000200A81ED0B0AD1ED0C0AB0EE600A01F173
:101300002C0010F047FB91ED030A81ED040A91EDEA
:10131000020A81ED030A91ED0B0A08BD00B50146F2
:10132000F0EE401AB0EE602A11B99FED3B0A00BD05
:10133000C1ED001A81ED012A91ED000AD1ED010AFB
:1013400030EE600A81ED020A91ED020AD1ED030A46
:1013500030EE600A81ED040A91ED050AD1ED020A32
:1013600020EE200A81ED080A91ED090AD1ED060A66
:1013700091ED021A00EE810A81ED090A91ED020A4F
:10138000D1ED030A30EE600AD1ED070A20EE200A03
:1013900081ED0A0AD1ED0E0AB0EE600A01F12400D7
:1013A00010F0F8FA91ED020ABDEEC00A10EE100A34
:1013B000002801DB024600E0424200EE102AB8EEAF
:1013C000C00AD1ED0D0AB4EEE00AF1EE10FA08DB26
:1013D00091ED080AD1ED0A0A30EE200A81ED0B0AE0
:1013E0000BE091ED080AD1ED090A30EE200AD1EDAB
:1013F0000A0A30EE200A81ED0B0AD1ED0C0AB0EE9C
:10140000600A01F12C0010F0C5FA91ED020A81ED9D
:10141000030A91ED0B0A8AE70000000010B50A48A4
:1014200090ED0D2AF0EE421A90ED0E2AB0EE421A1F
:1014300090ED0A2AF0EE420A90ED0C2AB0EE420A34
:1014400000F020F810BD0000100100209FED080AF8
:10145000084880ED230A9FED080A80ED490A9FEDB8
:10146000070A80ED6F0A9FED060A80ED950A704726
:10147000000001C2A8380020CDCCB1C27B140942C3
:10148000A4B0174300B5B0EE402AF0EE602AB0EEEB
:10149000413AB0EE431AF0EE620AB0EE420A0CF0A6
:1014A0002EF800BD0948B0F84400012804DA0120F4
:1014B000064981F8460003E00020044981F846000F
:1014C00000200249A1F844007047000010010020EC
:1014D00000201BE00F4951F82010B1F876100129C7
:1014E00006DA01210B4A52F8202082F8781005E034
:1014F0000021084A52F8202082F878100021054A7D
:1015000052F82020A2F87610411CC8B20328E1DB73
:1015100070470000E000002004201BE00F4951F854
:101520002010B1F87E10012906DA01210B4A52F889
:10153000202082F8801005E00021084A52F820207F
:1015400082F880100021054A52F82020A2F87E106F
:10155000411CC8B20628E1DB70470000F4000020FF
:101560000F48B0F84E000E49496D884204D90C4826
:10157000B0F84E000A4948650948B0F84E00012805
:1015800004DA0020064981F8500003E001200449F4
:1015900081F8500000200249A1F84E007047000079
:1015A000283E002010B50246002004E012F8013B5E
:1015B0004340044CE05C0B1EA1F10104A1B2F5D143
:1015C00010BD0000C45A010810B50A4890ED0D2A5C
:1015D000F0EE421A90ED0E2AB0EE421A90ED0A2A71
:1015E000F0EE420A90ED0C2AB0EE420A00F046F806
:1015F00010BD0000100100200C4890ED050AB8EE67
:10160000C00ADFED0B0AB4EEE00AF1EE10FA02DDDB
:101610009FED080A7047054890ED050AB8EEC00A2C
:10162000DFED030A30EE600AF4E700001038002016
:101630000080F643000000000D4890ED050AB8EE6A
:10164000C00A0C48D0ED000AB4EEE00AF1EE10FA40
:1016500002D29FED090A7047054890ED050AB8EEE1
:10166000C00A0448D0ED000A30EE600AF3E700003B
:1016700010380020DC0500200000000010B52DED22
:10168000048BB0EE408AF0EE608AB0EE419AF0EE44
:10169000619AF0EE691AB0EE491AF0EE680AB0EEFF
:1016A000480A0FF047FCBDEC048B10BD0246501AEF
:1016B000B0F5805F03DDA0F5F850FF3805E010F5C8
:1016C000805F02DA41F6FF731844704790ED000A1C
:1016D000B5EEC00AF1EE10FA02DD90ED000A03E06B
:1016E00090ED000AB1EE400AD0ED010AF5EEC00A15
:1016F000F1EE10FA02DDD0ED010A03E0D0ED010AAF
:10170000F1EE600AB4EEE00AF1EE10FA04D29FEDB9
:10171000080A80ED000A09E090ED000AD0ED000A09
:101720009FED041A00EEC10A80ED000A7047000028
:1017300000000000CDCC4C3E10B5024801F04EFF39
:1017400010BD00002C18002010B5024801F046FF23
:1017500010BD00008C18002010B5FE48C06C006859
:10176000FD49884276D9FC4854380068F949C96C6B
:101770000968FA4A914201D1202169E0F549C96C12
:101780000968F54A483A914201D1202160E0F149C7
:10179000C96C0968F14A6032914201D1202157E0B9
:1017A000EC49C96C0968EC4A1832914201D12021F8
:1017B0004EE0E849C96C0968E84A1832914201D103
:1017C000C91445E0E349C96C0968E34A303A9142DB
:1017D00001D1C9143CE0DF49C96C0968DF4A78329D
:1017E000914201D1C91433E0DA49C96C0968DA4A77
:1017F0003032914201D1C9142AE0D649C96C096836
:10180000D64A3032914202D14FF4001120E0D14942
:10181000C96C0968D04A183A914202D14FF40011BC
:1018200016E0CC49C96C0968CC4A9032914202D189
:101830004FF400110CE0C749C96C0968C64A483228
:10184000914203D14FF4001102E003E04FF0006138
:10185000084070E1BF48C06C0068C049A8318842A8
:1018600076D9BD4858380068BA49C96C0968BB4A7E
:10187000914201D1202169E0B649C96C0968B64A94
:10188000483A914201D1202160E0B249C96C09680F
:10189000B24A6032914201D1202157E0AD49C96C72
:1018A0000968AD4A1832914201D120214EE0A94980
:1018B000C96C0968A94A1832914201D1C91445E09E
:1018C000A449C96C0968A44A303A914201D1C914AB
:1018D0003CE0A049C96C0968A04A7832914201D124
:1018E000C91433E09B49C96C09689B4A3032914264
:1018F00001D1C9142AE09749C96C0968974A303266
:10190000914202D14FF4001120E09249C96C09685C
:10191000914A183A914202D14FF4001116E08D49D4
:10192000C96C09688D4A9032914202D14FF400117E
:101930000CE08849C96C0968874A4832914203D152
:101940004FF4001102E003E04FF000610840F2E0C4
:101950008048C06C006881494831884276D97F4808
:10196000103840687B49C96C09687C4A914201D1B2
:10197000202169E07749C96C0968774A483A914261
:1019800001D1202160E07349C96C0968734A603253
:10199000914201D1202157E06E49C96C09686E4A15
:1019A0001832914201D120214EE06A49C96C096880
:1019B0006A4A1832914201D1C91445E06549C96C9F
:1019C0000968654A303A914201D1C9143CE0614945
:1019D000C96C0968614A7832914201D1C91433E077
:1019E0005C49C96C09685C4A3032914201D1C91422
:1019F0002AE05849C96C0968584A3032914202D1EC
:101A00004FF4001120E05349C96C0968524A183A52
:101A1000914202D14FF4001116E04E49C96C096899
:101A20004E4A9032914202D14FF400110CE04949E4
:101A3000C96C0968484A4832914203D14FF40011F9
:101A400002E003E04FF00061084074E043481038C2
:101A500000684049C96C0968404A914201D120217F
:101A600068E03C49C96C09683B4A483A914201D157
:101A700020215FE03749C96C0968384A60329142D9
:101A800001D1202156E03349C96C0968324A183225
:101A9000914201D120214DE02E49C96C09682F4A9D
:101AA0001832914201D1C91444E02A49C96C09682D
:101AB000294A303A914201D1C9143BE02549C96C09
:101AC0000968264A7832914201D1C91432E021498D
:101AD000C96C0968204A3032914201D1C91429E009
:101AE0001C49C96C09681D4A3032914202D14FF439
:101AF00000111FE01749C96C0968174A183A91424A
:101B000002D14FF4001115E01249C96C0968134A5B
:101B10009032914202D14FF400110BE00D49C96C93
:101B200009680D4A4832914202D14FF4001101E098
:101B30004FF00061084000286FD00648C06C006874
:101B4000054988427BD90348C06C00680349884234
:101B500008D105E0201400205864024010600240C3
:101B6000202068E0FE48C06C0068FE49884201D130
:101B7000202060E0FA48C06C0068FB49884201D12F
:101B8000202058E0F648C06C0068F6496031884271
:101B900001D120204FE0F248C06C0068F24948397A
:101BA000884201D1C01446E0ED48C06C0068ED49A0
:101BB0001831884201D1C0143DE0E948C06C00688A
:101BC000E9491831884201D1C01434E0E448C06CBE
:101BD0000068E4497831884201D1C0142BE0E04824
:101BE000C06C0068E0493039884202D14FF40010DF
:101BF00021E0DB48C06C0068DA493031884202D10C
:101C00004FF4001017E0D648C06C0068D649303158
:101C1000884204D14FF400100DE0DFE10FE0D0481E
:101C2000C06C0068CF499031884202D14FF4001057
:101C300001E04FF00060CB49091F08606AE1C84825
:101C4000C06C0068C8494831884274D9C448C06C27
:101C50000068C5496039884201D1202066E0C0484B
:101C6000C06C0068BF49884201D120205EE0BC48BA
:101C7000C06C0068BC49884201D1202056E0B848B9
:101C8000C06C0068B7496031884201D120204DE026
:101C9000B348C06C0068B4494839884201D1C014C7
:101CA00044E0AF48C06C0068AE491831884201D1A9
:101CB000C0143BE0AA48C06C0068AB4918318842A8
:101CC00001D1C01432E0A648C06C0068A549783143
:101CD000884201D1C01429E0A148C06C0068A24923
:101CE0003039884202D14FF400101FE09C48C06C8C
:101CF00000689C493031884202D14FF4001015E051
:101D00009748C06C006898493031884202D14FF43E
:101D100000100BE09248C06C0068924990318842F4
:101D200002D14FF4001001E04FF000608D490839F6
:101D30000860EFE0FFE78A48C06C00688A491839FC
:101D4000884274D98648C06C0068874960398842E7
:101D500001D1202066E08248C06C00688149884239
:101D600001D120205EE07E48C06C00687E49884238
:101D700001D1202056E07A48C06C00687949603172
:101D8000884201D120204DE07548C06C006876493A
:101D90004839884201D1C01444E07148C06C0068E1
:101DA00070491831884201D1C0143BE06C48C06CC6
:101DB00000686D491831884201D1C01432E068488A
:101DC000C06C006867497831884201D1C01429E0AD
:101DD0006348C06C006864493039884202D14FF4CE
:101DE00000101FE05E48C06C00685E4930318842D8
:101DF00002D14FF4001015E05948C06C00685A49F0
:101E00003031884202D14FF400100BE05448C06CCE
:101E1000006854499031884202D14FF4001001E02B
:101E20004FF0006050497039C86073E0FFE74C48DC
:101E3000C06C00684C496039884201D1202066E0BE
:101E40004748C06C00684749884201D120205EE0C5
:101E50004348C06C00684449884201D1202056E0C4
:101E60003F48C06C00683F496031884201D1202062
:101E70004DE03B48C06C00683B494839884201D17D
:101E8000C01444E03648C06C0068364918318842B6
:101E900001D1C0143BE03248C06C006832491831AF
:101EA000884201D1C01432E02D48C06C00682D4931
:101EB0007831884201D1C01429E02948C06C0068FB
:101EC00029493039884202D14FF400101FE02448DC
:101ED000C06C006823493031884202D14FF40010B1
:101EE00015E01F48C06C00681F493031884202D19C
:101EF0004FF400100BE01A48C06C0068194990318B
:101F0000884202D14FF4001001E04FF00060164902
:101F1000703988601548007800F0020078B11348E5
:101F2000007820F00200114908700846007840F05F
:101F300004000870012211460D4801F09FFF0D4872
:101F4000007800F00200E0B10A48007820F00200BA
:101F5000084908700846007840F0040008700BE05B
:101F6000201400201064024070600240D50A002056
:101F700000040240D60A002001221021184801F076
:101F80007DFF1848007800F0020078B1154800780D
:101F900020F00200134908700846007840F0040061
:101FA0000870012210210E4801F068FF10F004FDB6
:101FB0000D48007800F0040080B10B48007820F054
:101FC0000400094908700846007840F008000870CD
:101FD0000648006840F001000449086010BD000098
:101FE00000000240D70A0020D50A0020103C014022
:101FF00010B5024801F0F2FA10BD0000A016002052
:1020000010B5024801F0EAFA10BD0000CC1700201C
:102010000146087810381823B0FBF3F20848805CBA
:10202000C865032A05D908686FF30900001D886593
:1020300003E008686FF309008865886D7047000049
:10204000DC5B0108014600208A6A8B69CBB932B19A
:10205000012A0DD0022A03D0032A10D10EE000BFBE
:10206000CB6A03F08073B3F1807F00D1012007E0D9
:10207000CB6AB3F1C07F00D1012001E000E000BFD6
:1020800034E08B69B3F5005F1AD132B1012A07D071
:10209000022A03D0032A11D10AE000BF01200EE07A
:1020A000CB6A03F08073B3F1807F00D1012006E09A
:1020B000CB6AB3F1C07F00D1012000E000BF15E082
:1020C00032B1012A05D0022A04D0032A0CD103E040
:1020D00000BF00BF012008E0CB6A03F08073B3F1BA
:1020E000807F00D1012000E000BF00BF704730B505
:1020F0000468246824F4802405682C600468636004
:102100008468402C04D10468A2600468E16003E0A4
:102110000468A1600468E26030BD00002DE9FC4164
:1021200007460C4615461E460020009001901349B4
:102130008860C8600820086140F275100860380A9D
:102140008DF80000F8B28DF80100200A8DF8020029
:10215000E0B28DF80300280A8DF80400E8B28DF88B
:102160000500300A8DF80600F0B28DF80700002354
:102170006A46034800F0FFFCBDE8FC81A03E002059
:102180007C1300202DE9FC4107460C4615461E46EF
:1021900000200090019013498860C8600820086101
:1021A00040F285100860380A8DF80000F8B28DF80A
:1021B0000100200A8DF80200E0B28DF80300280A21
:1021C0008DF80400E8B28DF80500300A8DF806009D
:1021D000F0B28DF8070000236A46034800F0CBFCFC
:1021E000BDE8FC81A03E00207C1300202F48807FAA
:1021F00001280AD02D48807F032806D02B48807FF5
:10220000022802D02948807FF0BB2848C07F0128DF
:102210000AD02648C07F032806D02448C07F022861
:1022200002D02248C07F78BB2048B0F91600B0F534
:10223000257F37DC1D48B0F9160010F5257F31DB0E
:102240001A48B0F91800B0F5257F2BDC1748B0F913
:10225000180010F5257F25DB1448B0F91A00B0F5F9
:10226000257F1FDC1148B0F91A0010F5257F19DB16
:102270000E48B0F91C00B0F5257F13DC0B48B0F90F
:102280001C0010F5257F00E00CE00BDB0748B0F9DF
:102290002000B0F5257F05DC0448B0F9200010F5DA
:1022A000257F01DA012070470020FCE7083B002071
:1022B00010B50446A06B0068006820F00100A16B17
:1022C00009680860A06B00684068042802D10848CB
:1022D00000F010F81620A16B09684860A06B006838
:1022E000006840F00100A16B0968086010BD0000A3
:1022F000083B002010B5044604B910BD2078617871
:1023000040EA0120C0F30A007449C8826078C01016
:10231000A17840EA4110C0F30A0170480183A07817
:102320008011E17840EA8100217940EA8120C0F300
:102330000A016A48418320794010617940EAC1105E
:10234000C0F30A0165488183607900118108634800
:1023500081776079C0F301116048C177A079E17994
:1023600040EA012000B25D494884207A617A40EA5F
:10237000012001B259488184A07AE17A40EA012023
:1023800001B25648C184217B80F82810617B80F817
:102390002910A07BE17B40EA012050494885207C40
:1023A000617C40EA0120C0F30A014C4801844C489A
:1023B000B0F84400401C4A49A1F844004748C08A8C
:1023C000A0F5806000B24549C8820846008BA0F5A0
:1023D000806001B241480183408BA0F5806001B26A
:1023E0003E484183808BA0F5806001B23B488183E9
:1023F000008CA0F5806001B238480184B0F9160065
:10240000052808DC3548B0F9160010F1050F02DB8D
:1024100000203249C8823148B0F91800052808DC8C
:102420002E48B0F9180010F1050F02DB00212B48EF
:1024300001832A48B0F91A00052808DC2748B0F9BA
:102440001A0010F1050F02DB0021244841832348C4
:10245000B0F91C00052808DC2048B0F91C0010F178
:10246000050F02DB00211D4881831C48B0F92000C4
:10247000052808DC1948B0F9200010F1050F02DB2F
:102480000021164801841548807F1549096C0870A1
:102490001248C07F1249096C48701048B0F92200F8
:1024A00000EE100AB8EEC00ADFED0E0A20EE200A98
:1024B0000B4880ED000A0948B0F9240000EE100A2C
:1024C000B8EEC00ADFED080A20EE200A044880EDCD
:1024D000010A05F011FD00BF0FE70000083B0020D6
:1024E00010010020CDCC4C3D9A99193F38B50446D7
:1024F00000BF0020009020680068009020684068BD
:10250000009000BF00BF2068C06840F40050216800
:10251000C8602068C06840F010002168C8601622BA
:10252000024920460BF00CFE38BD0000083B00209D
:1025300008B512F0B3FE009000BF00BF074948691C
:102540008047074948688047064948698047FEF741
:10255000E3FFC821684611F0EDFEEFE760080020B8
:10256000EC00002058010020704710B5012001F058
:1025700075FB10BD10B5082001F070FB10BD10B543
:10258000102001F06BFB10BD10B5202001F066FBA0
:1025900010BD70475048D0ED000A9FED501A9FEDD6
:1025A000500A00EE810A4F4880ED000A4A48D0EDFB
:1025B000010A9FED4A1A9FED4A0A00EE810A494836
:1025C00080ED020A4448D0ED020A9FED441A9FEDC7
:1025D000440A00EE810A434880ED010A424890ED2A
:1025E000020ADFED3E0A20EE200A3E4880ED090A8D
:1025F0003D4890ED000ADFED390A20EE200A394807
:1026000080ED0A0A90ED000AD0ED030A30EE600A70
:10261000DFED360AB4EEE00AF1EE10FA03D24069BB
:10262000401C304948612F4890ED030AD0ED000A64
:1026300030EE600ADFED2D0AB4EEE00AF1EE10FA9A
:1026400003D24069401E27494861264890ED000AA0
:10265000D0ED050AF8EEE00A9FED251A00EE810A9A
:1026600080ED070A90ED000A80ED030A90ED010A63
:10267000D0ED040A30EE600ADFED1C0AB4EEE00A89
:10268000F1EE10FA03D28069401C164988611548A2
:1026900090ED040AD0ED010A30EE600ADFED130A76
:1026A000B4EEE00AF1EE10FA03D28069401E0D4943
:1026B00088610C4890ED010AD0ED060AF8EEE00AB8
:1026C0009FED0B1A00EE810A80ED080A90ED010AD9
:1026D00080ED040A70470000A4420020E02E65420D
:1026E000000034433C350020B0420020000096C377
:1026F0000000B44310B5002201B909E0012901D15D
:102700000A0205E0022901D10A0201E04FF44072F9
:102710000E4B1B6823F440730C4C236023461B684C
:102720001343236023461B6823F0F80323602346EA
:102730001B68022444EAC0042343044C236023465C
:102740001B6843F48033236010BD0000103C02403E
:102750001C48006800F40070B0B11A48006820F40A
:1027600000701849086000BF0846006840F4006027
:1027700008600846006820F40060086000BF084652
:10278000006840F4007008600E48006800F4806043
:10279000B0B10C48006820F480600A49086000BFAE
:1027A0000846006840F4805008600846006820F43D
:1027B0008050086000BF0846006840F480600860F0
:1027C00070470000003C02400A4A126822F440723E
:1027D000084B1A601A46126842F004021A601A4640
:1027E00012684FF4803343EA00231A43014B1A6006
:1027F00070470000103C0240074A126822F4407201
:10280000054B1A601A4612681A601A46126842F09E
:1028100001021A6001707047103C024010B50D496A
:10282000096821F440710B4C21602146096841F48C
:10283000407121602146096841F001012160026078
:1028400000BF00BF00BFBFF36F8F00BF00BF00BF5E
:10285000436010BD103C0240084A126822F44072E6
:10286000064B1A601A46126842F480721A601A46C1
:10287000126842F001021A6001807047103C024069
:10288000084A126822F44072064B1A601A4612680F
:1028900042F400721A601A46126842F001021A608D
:1028A00001607047103C02402348006800F01000AF
:1028B00040B12248C06940F010002049C861102092
:1028C0001D4908601C48006800F0200040B11B480A
:1028D000C06940F008001949C86120201649086005
:1028E0001548006800F0400040B11448C06940F04D
:1028F00004001249C86140200F4908600E48006872
:1029000000F0800040B10D48C06940F002000B4962
:10291000C8618020084908600748006800F002008C
:1029200040B10648C06940F020000449C861022057
:1029300001490860704700000C3C0240A44300209D
:1029400070B50446002500201449C86101F09CFAC6
:10295000054609E0601C38B124B101F095FA401B2E
:10296000A04201D9032070BD0D48006800F48030FA
:102970000028EFD10A48006800F0010010B10120E2
:10298000074908600648006800F0F20018B1FFF738
:102990008BFF0120E7E70020E5E70000A4430020CB
:1029A0000C3C0240D0ED000A91ED001A30EEC11A45
:1029B000D1ED000A40EE010AC1ED000A70470000A7
:1029C0002A48C078012802D00020294908702948E7
:1029D00080790F2811D12848B0F9000027490988CB
:1029E000234A127801FB120000B2254908800846EC
:1029F000B0F900002349088037E01E48807912288A
:102A000011D12148B0F900001C490988184A1278F0
:102A100001FB120000B21A4908800846B0F9000014
:102A20001849088021E0134880791E2811D11748E1
:102A3000B0F90000114909880D4A127801FB120013
:102A400000B20F4908800846B0F900000D4908801F
:102A50000BE00C48B0F9001008480088044A1278CE
:102A600000FB121000B206490880704714090020CC
:102A700036090020383B00202209002034090020BC
:102A80002C0900202A090020240900202809002000
:102A90000246002321B1012908D0022912D10BE0FE
:102AA0000C48C068D04000F001030DE00948806880
:102AB000D04000F0010307E006480069D04000F074
:102AC000010301E0002300BF00BF0BB101207047EC
:102AD0000020FCE71001002001484078704700000A
:102AE000283E002030B5034613B94FF6FF7030BDC5
:102AF00009E013F8014B82EA0400C0B2054D35F835
:102B0000100080EA2222081EA1F10101F1D1104635
:102B1000EDE70000A658010870B50A480468001DDA
:102B20000568001D0668344454B108220649204651
:102B300005F0C2F9042204491031284605F0BCF919
:102B400070BD0000107AFF1F6E00002010B5024615
:102B500092F82030012B01D0022B06D11068406979
:102B6000084314686061002010BD506A40F4802062
:102B700050620120F8E7F0B504460D461E4694F871
:102B8000207020688368A86800B900E000BF012FAA
:102B900001D0022F7CD103F0806030B903F00060D7
:102BA00018B903F08050002873D0C3F301610229E3
:102BB00005D9606A40F4000060620120F0BD012088
:102BC00088403060A86860B9B5F800C0E86840EA9D
:102BD0004C5C206800F5C07000EB0110C0F800C02C
:102BE0000FE0D5E901C040EACC00D5F80CC040EABE
:102BF0000C00D4F800C00CF5C07C0CEB011CCCF828
:102C00000000D5F810C0206800F5C07000EB01107E
:102C1000C0F804C0287D01280ED1206800F5C070DE
:102C200000EB0110406840F4807C206800F5C07023
:102C300000EB0110C0F804C0D079000692F806C07D
:102C400040EA0C4092F805C040EA0C2C10794CEA9E
:102C5000000C206800F5C07000EB0110C0F80CC03B
:102C6000D078000692F802C040EA0C4092F801C009
:102C700040EA0C2092F800C040EA0C00D4F800C0F2
:102C80000CF5C07C0CEB011CCCF80800206801E0BE
:102C900016E00FE000F5C07000EB0110006840F096
:102CA000010C206800F5C07000EB0110C0F800C0F6
:102CB000002083E7606A40F40010606201207DE735
:102CC000606A40F480206062012077E7F0B5044636
:102CD0000A46216894F82050012D01D0022D7ED1A2
:102CE000424901F50071086840F001000860086879
:102CF00020F47C5008600868566A40EA06200860A4
:102D0000107D00F01F06012000FA06F3C869984301
:102D1000C861A1F50071D069C8B9D1F80C02984317
:102D2000C1F80C02908880B2968940EA064601F507
:102D30001070576940F83760108880B2168940EAF1
:102D4000064601F51070576900EBC7004660D06970
:102D5000012819D1D1F80C021843C1F80C0290884F
:102D600080B2168840EA064601F51070576940F8AF
:102D70003760908980B2168940EA064601F51070E6
:102D8000576900EBC7004660906928B9D1F8040282
:102D90009843C1F8040204E0D1F804021843C1F8D2
:102DA0000402106928B9D1F814029843C1F814023A
:102DB00004E0D1F814021843C1F81402106A012883
:102DC00004D1D1F81C021843C1F81C02D1F800024A
:102DD00020F00100C1F800020020F0BDFFE7606AAA
:102DE00040F4802060620120F7E7000000640040AA
:102DF000704770B5044694F82050012D01D0022D83
:102E00007DD151B92068C06800F0030080B9606AC4
:102E100040F400106062012070BD2068006900F07D
:102E2000030028B9606A40F4001060620120F3E7F3
:102E3000206800F5D87000EB0110006800F0040075
:102E40009060906840B9206800F5D87000EB0110E0
:102E50000068400D106007E0206800F5D87000EBB6
:102E600001100068C0085060206800F5D87000EBC1
:102E70000110006800F00200D060206800F5D870F2
:102E800000EB0110406800F00F001061206800F5B1
:102E9000D87000EB0110406800F47F40000A906198
:102EA000206800F5D87000EB01104068000C5061FC
:102EB000206800F5D87000EB011080681870206859
:102EC00000F5D87000EB0110806800F47F40000A24
:102ED0005870206800F5D87000EB0110806800F48D
:102EE0007F00000C9870206800F5D87000EB01108E
:102EF0008068000ED870206800F5D87000E02FE0E0
:102F000000EB0110C0681871206800F5D87000EB64
:102F10000110C06800F47F40000A5871206800F575
:102F2000D87000EB0110C06800F47F00000C9871AD
:102F3000206800F5D87000EB0110C068000ED87151
:102F400031B92068C06840F020002668F06005E0D4
:102F50002068006940F020002668306100205BE7AF
:102F6000606A40F480206062012055E72DE9F05F3F
:102F700004460025206846692068D0F8049020683F
:102F800087682068D0F80CA02068D0F810B02068BE
:102F9000D0F8188006F00100002855D007F0010095
:102FA000C0B101202168886007F0020018B12046F6
:102FB00000F0A3FA0EE007F0040010B145F400653C
:102FC00008E007F0080010B145F4805502E0204603
:102FD00000F092FA07F48070C8B14FF48070216855
:102FE000886007F4007018B1204600F088FA0EE0FF
:102FF00007F4806010B145F4005508E007F4006064
:1030000010B145F4804502E0204600F077FA07F45D
:103010008030C8B14FF480302168886007F40030F8
:1030200018B1204600F06DFA0EE007F4802010B1D0
:1030300045F4004508E007F4002010B145F4803560
:1030400002E0204600F05CFA06F0080038B10AF011
:10305000100020B145F4007510202168C86006F00A
:10306000040040B10AF0080028B108202168C860B7
:10307000204600F00DFA06F0020038B12068C06862
:1030800000F0030010B1204600F003FA06F0400003
:1030900038B10BF0100020B145F480651020216894
:1030A000086106F0200040B10BF0080028B10820AC
:1030B00021680861204600F0EDF906F0100038B1F3
:1030C0002068006900F0030010B1204600F0E3F929
:1030D00006F4003040B109F0100028B1102021683A
:1030E0004860204600F0D8F906F4803040B109F07D
:1030F000080028B1082021684860204600F002FA44
:1031000006F4004088B309F0040078B306F4807038
:1031100020B108F0010008B145F0010506F4007087
:1031200020B108F0020008B145F0020506F4806005
:1031300020B108F0040008B145F0040506F4006071
:10314000A0B108F0700088B108F07000402817D0D6
:1031500006DC10280BD020280CD0302819D10CE028
:10316000502810D0602814D110E01DE019E045F07F
:1031700008050FE045F010050CE045F0200509E0DA
:1031800045F0400506E045F0800503E045F4807514
:1031900000E000BF00BF2068806920F07000216857
:1031A00088610420216848602DB1606A284360620C
:1031B0002046FFF71DFEBDE8F09F70B504460CB930
:1031C000012070BD94F8200010B9204600F0B0F83E
:1031D0002068006840F001002168086000F054FE9B
:1031E00005460DE000F050FE401B0A2808D9606A31
:1031F00040F400306062052084F820000120E0E700
:103200002068406800F001000028EBD020680068CA
:1032100020F002002168086000F036FE05460DE04F
:1032200000F032FE401B0A2808D9606A40F40030E2
:103230006062052084F820000120C2E72068406811
:1032400000F002000028EBD1207E012806D1206882
:10325000006840F080002168086005E02068006890
:1032600020F0800021680860607E012806D1206877
:10327000006840F040002168086005E020680068B0
:1032800020F0400021680860A07E012806D1206857
:10329000006840F020002168086005E020680068B0
:1032A00020F0200021680860E07E012806D1206817
:1032B000006820F010002168086005E020680068C0
:1032C00040F0100021680860207F012806D12068A6
:1032D000006840F008002168086005E02068006888
:1032E00020F0080021680860607F012806D120686E
:1032F000006840F004002168086005E0206800686C
:1033000020F0040021680860D4E902010843216923
:103310000843616908436168491E08432168C86120
:1033200000206062012084F82000002049E70000AE
:1033300010B586B00446142101A8FCF7EDFF4E49F4
:103340002068884241D14D480068401C4B490860C4
:103350000846006801280FD100BF002000904848AF
:10336000006840F00070464908600846006800F0B8
:103370000070009000BF00BF00BF002000904048D8
:103380001038006840F008003D49103908600846D0
:10339000006800F00800009000BF00BF032001900B
:1033A0000220029000200390032004900920059041
:1033B00001A9344800F060FC00220521142001F02E
:1033C0009FF9142001F08CF954E02F4920688842BD
:1033D00050D100BF002000902948006840F0806074
:1033E000274908600846006800F08060009000BF30
:1033F00000BF22480068401C204908600846006859
:1034000001280FD100BF002000901D48006840F047
:1034100000701B4908600846006800F000700090CA
:1034200000BF00BF00BF00200090154810380068A2
:1034300040F002001249103908600846006800F0A8
:103440000200009000BF00BF6020019002200290A7
:1034500000200390032004900920059001A90B4847
:1034600000F00AFC00220521402001F049F940202B
:1034700001F036F906B010BD0064004034000020B1
:1034800040380240000C0240006800400004024046
:103490007047704770477047704770B5044694F89E
:1034A0002000012822D1022084F820002068006832
:1034B00020F001002168086000F0E6FC05460DE000
:1034C00000F0E2FC401B0A2808D9606A40F4003092
:1034D0006062052084F82000012070BD20684068EB
:1034E00000F001000028EBD16062F6E7606A40F46A
:1034F000002060620120F0E7704770477047704716
:1035000070477047704770B50446A56D00F0BCFC6D
:10351000064694F83500022808D08020606500BF78
:10352000002084F8340000BF012070BD20680068CE
:1035300020F01600216808602068406920F08000B3
:1035400021684861206C08B9A06C28B12068006827
:1035500020F00800216808602068006820F0010061
:103560002168086010E000F08FFC801B05280BD953
:1035700020206065032084F8350000BF002084F817
:10358000340000BF0320D0E72068006800F001008D
:103590000028E8D194F85C103F208840A860012002
:1035A00084F8350000BF002084F8340000BF00BF5D
:1035B000BBE7014691F83500022803D0802048651A
:1035C00001207047052081F835000868006820F068
:1035D00001000A6810600020F3E70000F8B5044617
:1035E000002000908C4800684FF41651B0FBF1F7B2
:1035F000A56D2E6894F85C1008208840304098B182
:103600002068006800F0040070B12068006820F0B5
:1036100004002168086094F85C1008208840A860C5
:10362000606D40F00100606594F85C1001208840F6
:10363000304068B12068406900F0800040B194F8E3
:103640005C1001208840A860606D40F00200606559
:1036500094F85C1004208840304068B1206800680D
:1036600000F0020040B194F85C1004208840A8608B
:10367000606D40F00400606594F85C101020884094
:10368000304078B32068006800F0080050B394F828
:103690005C1010208840A8602068006800F480203A
:1036A00080B12068006800F4002028B9206CC8B1FF
:1036B0002046216C884715E0A06C98B12046A16C8B
:1036C00088470FE02068006800F4807028B92068FF
:1036D000006820F0080021680860206C10B12046C6
:1036E000216C884794F85C102020884030400028E6
:1036F00065D02068006800F0100000285FD094F8C2
:103700005C1020208840A86094F83500052828D156
:103710002068006820F01600216808602068406971
:1037200020F0800021684861206C08B9A06C28B1A5
:103730002068006820F008002168086094F85C1098
:103740003F208840A860012084F8350000BF002099
:1037500084F8340000BF206D10B12046216D8847E9
:10376000F8BD2068006800F4802080B120680068FF
:1037700000F4002028B9606C10B12046616C8847C5
:103780001DE0E06BD8B12046E16B884717E0206868
:10379000006800F4807068B92068006820F01000AC
:1037A00021680860012084F8350000BF002084F8FB
:1037B000340000BFE06B10B12046E16B8847606DBC
:1037C00038B3606D00F00100F0B1052084F83500D9
:1037D0002068006820F001002168086000BF0098A0
:1037E000401C0090B84200D905E02068006800F055
:1037F00001000028F3D100BF012084F8350000BF8C
:10380000002084F8340000BFE06C10B12046E16C69
:10381000884700BFA4E70000A00B00202DE9F0417D
:103820000446002500F030FB074614B90120BDE82E
:10383000F081606A00B100BF022084F8350000BF4B
:10384000002084F8340000BF2068006820F00100E8
:10385000216808600AE000F017FBC01B052805D9A5
:1038600020206065032084F83500E0E720680068C8
:1038700000F001000028EED12068056821480540CD
:10388000D4E901010843E1680843216908436169FB
:103890000843A1690843E1690843216A08430543D5
:1038A000606A042803D1D4E90B010843054320686A
:1038B00005602068456925F00705606A0543606A70
:1038C00004280DD1A06A0543E06A48B12046FEF7FE
:1038D000B9FB28B140206065012084F83500A6E7D7
:1038E000206845612046FEF793FB064694F85C107D
:1038F0003F208840B06000206065012084F83500DA
:10390000002094E73F8010F02DE9F04104460D4679
:1039100016461F464FF0000800BF94F834000128F7
:1039200002D10220BDE8F081012084F8340000BFFC
:1039300094F83500012811D1022084F835000020C8
:1039400060653B46324629462046FEF7D0FB20689C
:10395000006840F001002168086006E000BF002018
:1039600084F8340000BF4FF002084046DAE72DE942
:10397000F04704460D4616461F464FF00008D4F89F
:10398000589000BF94F83400012802D10220BDE80D
:10399000F087012084F8340000BF94F83500012836
:1039A00025D1022084F83500002060653B46324670
:1039B00029462046FEF79BFB94F85C103F20884088
:1039C000C9F808002068006840F016002168086007
:1039D000206C28B12068006840F008002168086069
:1039E0002068006840F001002168086006E000BF20
:1039F000002084F8340000BF4FF002084046C6E7BC
:103A000070B5044600F040FA06462546681C10B121
:103A100004480078054400BF00F036FA801BA84235
:103A2000FAD370BDC00B00202DE9F04104460E46CC
:103A30000127002500BF2548007E012802D1022071
:103A4000BDE8F08101202149087600BF4CF25030DA
:103A5000FEF776FF0746002F31D1401E3060206808
:103A600001280FD1207C6168FEF7AEFE4CF2503089
:103A7000FEF766FF07461648006820F00400144968
:103A800008601AE0A56812E0217C2846FEF732FEA5
:103A90004CF25030FEF754FF07460D48006820F006
:103AA000FA000B4908600FB1356005E06D1CD4E9E0
:103AB00002100844A842E7D800BFFEF749FE00BF45
:103AC00000200249087600BF3846B9E7A443002029
:103AD000103C02400348006840F000400149086083
:103AE00000207047103C02402DE9F04106460F4689
:103AF00014461D464FF0010800BF1F48007E0128F4
:103B000002D10220BDE8F08101201B49087600BFE8
:103B10004CF25030FEF714FF8046B8F1000F23D16D
:103B200026B9E1B23846FEF767FE12E0012E04D155
:103B3000A1B23846FEF790FE0BE0022E04D12146DA
:103B40003846FEF79DFE04E022462B463846FEF737
:103B500065FE4CF25030FEF7F3FE804607480068E1
:103B600020F001000549086000BF002002490876E6
:103B700000BF4046C6E70000A4430020103C0240BE
:103B800000200949096801F0004159B10749064A76
:103B90000C3A1160064911600349096801F00041BF
:103BA00001B1012070470000103C0240230167452D
:103BB000AB89EFCD10B50446102C11D11F48007809
:103BC00040F001001D4908701D48007840F00100D8
:103BD0001B4908701B48007870B30EF0EDFE2BE017
:103BE000202C0BD11848007840F0010016490870CD
:103BF0001448007800B30EF0DFFE1DE0082C06D15B
:103C00001248007840F001001049087014E0012CBF
:103C100012D111F033FB01280ED00D490D48006878
:103C200010F07EFC0A48006830B120070A4908609D
:103C3000BFF34F8FBFF36F8F10BD0000D60A002077
:103C4000D70A0020D90A0020D50A0020D80A00206F
:103C50004C0B0020B00A002004ED00E010B5044633
:103C600004480068204020B1024804602046FFF765
:103C7000A1FF10BD143C0140F8B502460B460025DB
:103C8000002400200021D6E0012606FA01F51E6876
:103C900006EA0504AC4274D11E7906F00306012E33
:103CA00004D01E7906F00306022E13D190684F004F
:103CB0000326BE40B0434F00DE68BE4030439060F4
:103CC000506801268E40B0431E79C6F300168E4020
:103CD000304350601E7906F00306032E09D0D068E9
:103CE0004F000326BE40B0434F009E68BE403043A5
:103CF000D0601E7906F00306022E13D1CF0802F120
:103D0000200656F827004E07F70E0F26BE40B04398
:103D10004F07FF0E1E69BE403043CF0802F1200658
:103D200046F8270010684F000326BE40B0431E79B6
:103D300006F003064F00BE40304310605E6806F494
:103D40004036002E76D000BF002600963C4E3668E6
:103D500046F480463A4F3E603E46366806F480465A
:103D6000009600BF00BF374E8F0856F827008E0719
:103D7000370F0F26BE40B043334EB24202D1002669
:103D800024E057E0314EB24201D101261EE0304E10
:103D9000B24201D1022619E02E4EB24201D10326D1
:103DA00014E02D4EB24201D104260FE02B4EB24258
:103DB00001D105260AE02A4EB24201D1062605E0CD
:103DC000284EB24201D1072600E008268F073F0F98
:103DD000BE4030431B4E8F0846F82700224E306805
:103DE000A0435E6806F4801606B120431E4E306084
:103DF000361D3068A0435E6806F4001606B1204305
:103E0000194E361D3060184E361F3068A0435E686C
:103E100006F4003606B12043134E361F3060361FBD
:103E20003068A0435E6806F4803606B120430E4E2B
:103E3000083E3060491C1029FFF426AFF8BD000091
:103E400044380240083801400000024000040240AB
:103E500000080240000C0240001002400014024022
:103E600000180240001C0240083C01400246136951
:103E70000B400BB1012000E0002070470AB18161C6
:103E800001E00B048361704701480068704700003F
:103E9000B80B002070B504460CB9012070BD94F831
:103EA0003D0028B9002084F83C00204600F006FBC5
:103EB000242084F83D002068006820F0010021687B
:103EC00008602068006840F40040216808602068AD
:103ED000006820F400402168086001F055FC0546A8
:103EE0005C496068884206D85B48854201D201205F
:103EF00007E0002005E05948854201D2012000E09A
:103F00000020012800D1C9E75548B5FBF0F620682C
:103F1000406820F03F003043216848604D496068A8
:103F2000884201D8701C07E04FF4967070434FF43C
:103F30007A71B0FBF1F0401C2168096A21F03F0161
:103F400008432168086243496068884214D8681EA3
:103F500061684900B0FBF1F0401CC0F30B0004287D
:103F600001D204203DE0681E61684900B0FBF1F019
:103F7000401CC0F30B0034E0A06838B9681E6168CB
:103F800001EB4101B0FBF1F0401C0AE0681E6168E2
:103F900001EBC10202EB0111B0FBF1F0401C40F457
:103FA0008040C0F30B0008B901201AE0A06848B9AE
:103FB000681E616801EB4101B0FBF1F0401CC0F3E9
:103FC0000B000CE0681E616801EBC10202EB0111FD
:103FD000B0FBF1F0401CC0F30B0040F4804040F413
:103FE00000402168C9694CF6FF729143084321687B
:103FF000C861D4E9070108432168096821F0C001BC
:10400000084321680860D4E90310084321688968DF
:1040100048F2FF329143084321688860D4E90501E2
:1040200008432168C96821F0FF0108432168C8607E
:104030002068006840F001002168086000202064CA
:10404000202084F83D000020206384F83E0000BF5B
:1040500024E70000A086010080841E0000093D00C6
:1040600040420F002DE9FC5F04460F4690469946FA
:10407000DDE90CAB0E9EFFF707FF054694F83D0007
:10408000202870D119230122B0492046009503F061
:10409000A3FB10B10220BDE8FC9F00BF94F83C00D8
:1040A000012801D10220F6E7012084F83C0000BF7E
:1040B0002068006800F0010028B92068006840F01E
:1040C0000100216808602068006820F40060216811
:1040D0000860222084F83D00402084F83E00002043
:1040E0002064C4F824A0A4F82AB0608D20859848E4
:1040F000E0624B46424639462046CDE9006503F072
:104100001DFA08B10120C6E7208D88B900BF002044
:10411000019020684069019020688069019000BF8B
:1041200000BF2068006840F400702168086040E02B
:10413000208D012818D12068006820F48060216853
:10414000086000BF0020019020684069019020684D
:104150008069019000BF00BF2068006840F40070D3
:104160002168086025E0EFE0208D022816D1206844
:10417000006820F48060216808602068006840F4CE
:1041800000602168086000BF00200190206840693D
:10419000019020688069019000BF0AE000BF002004
:1041A000019020684069019020688069019000BFFB
:1041B00000BFBAE0208D03287ED8208D012815D1BC
:1041C0002A463146204603F0ACFB08B1012062E7E5
:1041D00020680069616A0870606A401C6062208D16
:1041E000401E2085608D401E60859EE0208D022847
:1041F0002AD13346002257492046009503F0ECFAB5
:1042000008B1012047E72068006840F40070216889
:10421000086020680069616A0870606A401C60621A
:10422000208D401E2085608D401E608520680069BD
:10423000616A0870606A401C6062208D401E2085A3
:10424000608D401E608570E0334600224149204663
:10425000009503F0C1FA08B101201CE7206800684E
:1042600020F480602168086020680069616A087035
:10427000606A401C6062208D401E2085608D401E5B
:1042800060853346002233492046009503F0A4FAA6
:1042900008B10120FFE62068006840F40070216842
:1042A000086020680069616A0870606A401C60628A
:1042B000208D401E208500E010E0608D401E60854E
:1042C00020680069616A0870606A401C6062208D25
:1042D000401E2085608D401E608526E02A463146BE
:1042E000204603F01EFB08B10120D4E620680069D7
:1042F000616A0870606A401C6062208D401E2085E3
:10430000608D401E608520684069C0F3800060B108
:1043100020680069616A0870606A401C6062208DD4
:10432000401E2085608D401E6085208D00287FF412
:1043300041AF202084F83D00002084F83E0000BFFB
:1043400084F83C0000BFA6E60220A4E602001000AC
:104350000000FFFF040001002DE9FC5F04460F464A
:1043600090469946DDE90CAB0E9EFFF78DFD0546A4
:1043700094F83D0020287DD1192301224D49204683
:10438000009503F029FA10B10220BDE8FC9F00BFA0
:1043900094F83C00012801D10220F6E7012084F8BE
:1043A0003C0000BF2068006800F0010028B92068C8
:1043B000006840F00100216808602068006820F46F
:1043C000006021680860212084F83D00402084F8C6
:1043D0003E0000202064C4F824A0A4F82AB0608D18
:1043E00020853548E0624B46424639462046CDE9B5
:1043F000006503F053F908B10120C6E731E02A4611
:104400003146204603F0CDFA50B1206C042805D186
:104410002068006840F40070216808600120B4E75B
:10442000606A007821680861606A401C6062208DC3
:10443000401E2085608D401E608520684069C0F365
:10444000800070B1208D60B1606A007821680861D9
:10445000606A401C6062208D401E2085608D401E79
:104460006085208D0028CAD12A463146204603F0B7
:1044700085F900E01CE050B1206C042805D12068CB
:10448000006840F400702168086001207DE7206822
:10449000006840F4007021680860202084F83D0026
:1044A000002084F83E0000BF84F83C0000BF6CE7A9
:1044B00002206AE7020010000000FFFF10B586B07E
:1044C0000446142101A8FBF727FF2A4920688842E7
:1044D0004DD100BF002000902748006840F0040044
:1044E000254908600846006800F00400009000BFFD
:1044F00000BF00BF002000900846006840F00100A7
:1045000008600846006800F00100009000BF00BF8E
:10451000481501901220029001200390032004907E
:104520000420059001A91548FFF7A6FB4FF4807001
:104530000190122002900120039003200490042097
:10454000059001A90E48FFF797FB00BF00200090DF
:1045500009481030006840F4000007491031086035
:104560000846006800F40000009000BF00BF06B0DD
:1045700010BD0000005C00403038024000080240DE
:1045800000000240034800680349097808440149D3
:1045900008607047B80B0020C00B002010B50D4814
:1045A000006840F400700B4908600846006840F459
:1045B000806008600846006840F48070086003204E
:1045C00000F0DCF8002000F007F800F05FF80020B1
:1045D00010BD0000003C02402DE9F04188B00446C7
:1045E0000027B84600BF002001902348006840F033
:1045F0001000214908600846006800F01000019092
:1046000000BF00BF02A903A801F096F8069F1FB9DA
:1046100001F0BAF8054602E001F0B6F84500174887
:10462000B5FBF0F0A0F1010815481649086040F20A
:10463000E7311448C160C0F8048000210161816045
:10464000816101F023FE064696B90E4801F03CFF59
:1046500006466EB9362000F043F8102C07D200222F
:104660002146362000F04CF80748046000E001269F
:10467000304608B0BDE8F0814038024040420F00AB
:1046800000100040F4340020BC0B002008B500BF2F
:10469000002000901148006840F480400F490860F5
:1046A0000846006800F48040009000BF00BF00BFD3
:1046B00000200090081F006840F08050091F08602B
:1046C0000846006800F08050009000BF00BF002244
:1046D0000F21901E00F014F808BD0000443802407D
:1046E00001460846002809DB00F01F0301229A401A
:1046F00043099B0003F1E023C3F8002100BF70478A
:104700002DE9F05F80460D46164600270CF092FE1C
:10471000074639462A46334601F00700C0F1070A2A
:10472000BAF1040F02D94FF0040A01E0C0F1070A00
:10473000D14600F1040ABAF1070F02D24FF0000A85
:1047400001E0A0F1030AD4464FF0010A0AFA09FA7F
:10475000AAF1010A0AEA020A0AFA0CFA4FF0010B5E
:104760000BFA0CFBABF1010B0BEA030B4AEA0B044F
:10477000214640460CF066FEBDE8F09F00BF00F009
:104780000702064B19684FF6FF031940044B0B4311
:1047900043EA0221014B196000BF70470CED00E0B5
:1047A0000000FA0500BF00BF00BF00BF00BFBFF39D
:1047B0004F8F00BF00BF00BF0948006800F4E060F1
:1047C00008490843001D0649086000BF00BF00BF3C
:1047D000BFF34F8F00BF00BF00BF00BF00BFFDE7AA
:1047E0000CED00E00000FA057047024610684162D7
:1047F00000207047F0B5034615461868446A21B991
:1048000044EA05401E68B06219E01868806A04EB4B
:104810001044002208E0186800F5827050F8220069
:1048200004EB1044501CC2B2481E9042F3D844EA34
:104830000547186800F582704E1E40F8267000206B
:10484000F0BD10B50446D4F808050AF076FC10BD9A
:1048500070B504460D4605EBC50304F13C0101EBC0
:1048600083010A692946D4F808050AF061FB70BD86
:1048700070B504460D4605EBC50304F51F7101EB49
:1048800083010A692946D4F808050AF0D5FB70BDF2
:1048900010B50446D4F808050AF052FC10BD2DE905
:1048A000F04104460D4605F08000802808D105F04F
:1048B0000F0000EBC00104F13C0000EB810607E0B3
:1048C00005F00F0000EBC00104F51F7000EB81063E
:1048D000314620680BF026FF07463846BDE8F081D8
:1048E00070B504460E4606F0800080280AD106F016
:1048F0000F0000EBC00104F13C0000EB810501203A
:10490000687009E006F00F0000EBC00104F51F70AD
:1049100000EB81050020687006F00F00287000BFD2
:1049200094F8BC04012801D1022070BD012084F854
:10493000BC0400BF294620680BF0D4F900BF00205A
:1049400084F8BC0400BF00BFEFE770B504460E4614
:1049500006F00F006168884201D9012070BD06F0A1
:10496000800080280AD106F00F0000EBC00104F19E
:104970003C0000EB81050120687009E006F00F00A3
:1049800000EBC00104F51F7000EB8105002068708A
:104990000020A87006F00F00287000BF94F8BC0437
:1049A000012801D10220D9E7012084F8BC0400BF0E
:1049B000294620680BF07EFC00BF002084F8BC0470
:1049C00000BF00BFCAE7024601F00F0000EBC003C2
:1049D00002F51F7000EB8300006A70472DE9F04775
:1049E00005460E4690461F464FF0000906F080002F
:1049F00080280AD106F00F0000EBC00105F13C0051
:104A000000EB81040120607009E006F00F0000EB6C
:104A1000C00105F51F7000EB81040020607006F0F6
:104A20000F002070C4F80C802771607808B12078DE
:104A30002081022F01D10020607100BF95F8BC04D5
:104A4000012802D10220BDE8F087012085F8BC04CE
:104A500000BF214628680BF05BF800BF002085F8F6
:104A6000BC0400BF4846EEE72DE9F04104460E467F
:104A70001746984606F00F0000EBC00104F51F70C2
:104A800000EB81052F61C5F818800020286268704E
:104A900006F00F0028702069012800D16F6106F030
:104AA0000F0028B9227C294620680BF0DDFA04E0CB
:104AB000227C294620680BF091FC0020BDE8F081A3
:104AC00070B504460D4605F00F006168884201D9B3
:104AD000012070BD05F0800080280AD105F00F008C
:104AE00000EBC00104F13C0000EB81060120707076
:104AF00007E005EBC50104F51F7000EB81060020FF
:104B000070700120B07005F00F00307000BF94F895
:104B1000BC04012801D10220DBE7012084F8BC0499
:104B200000BF314620680BF00CFC05F00F0028B9DF
:104B3000217C04F2C44220680BF084FB00BF0020FB
:104B400084F8BC0400BF00BFC3E72DE9F041044670
:104B50000E461746984606F00F0000EBC00104F120
:104B60003C0000EB81052F61C5F818800020286209
:104B70000120687006F00F0028702069012800D11C
:104B80006F6106F00F0028B9227C294620680BF0DF
:104B90006BFA04E0227C294620680BF01FFC002001
:104BA000BDE8F0812DE9FE4F0446D4F800B05E4622
:104BB00020680BF09EFE002874D120680BF0D8FE10
:104BC00008B9BDE8FE8F40F608008059C0F30D20FB
:104BD000C4F8FC0420680BF0CBFE00F002000228B1
:104BE00005D12068406900F0020021684861206812
:104BF0000BF0BEFE00F01000102845D1206880693F
:104C000020F0100021688861DBF8209009F00F0087
:104C100000EBC00104F51F7000EB810AC9F34340AB
:104C200002281AD147F6F07009EA000030B3C9F340
:104C30000A125846DAF810100BF09FFEC9F30A1159
:104C4000DAF810000844CAF81000C9F30A11DAF8BB
:104C500020000844CAF8200010E0C9F343400628A9
:104C60000CD1082204F2C44158460BF086FEC9F369
:104C70000A11DAF820000844CAF820002068806988
:104C800040F010002168886120680BF071FE00F48C
:104C90000020B0F5002F7BD1002520680BF038FEF6
:104CA000029072E0E1E2029800F00100002868D072
:104CB000E9B220680BF04FFE804608F0010048B1D1
:104CC000012106F5306000EB451081602946204641
:104CD00004F094FC08F00800082809D1082106F522
:104CE000306000EB451081602946204604F054FCFA
:104CF00008F01000102805D1102106F5306000EBF7
:104D00004510816008F00200022824D1DBF814006D
:104D100000F08000802807D140F60400805940F45C
:104D2000806140F60400815105EBC50104F51F7058
:104D300000EB810A9AF80300012806D100208AF8C6
:104D40000300E9B2204600F09BFA022106F530602C
:104D500000EB4510816008F02000202805D12021BB
:104D600006F5306000EB4510816008F40050B0F5A6
:104D7000005F06D14FF4005106F5306000EB45109E
:104D800081606D1C029840080290029800288AD128
:104D900020680BF0EDFD00F48020B0F5802F7DD170
:104DA00020680BF0ABFD029000259AE0029800F01D
:104DB0000100002873D0E9B220680BF0B3FD8046F3
:104DC00008F00100F0B305F00F01012088400190C8
:104DD00040F634008159019821EA000040F6340180
:104DE0008851012106F5106000EB451081602069B3
:104DF000012824D105EBC50104F13C0000EB810042
:104E000005EBC502016904F13C0000EB8200C068BB
:104E1000014405EBC50204F13C0000EB8200016196
:104E20006DB905EBC50104F13C0000EB8100806920
:104E300028B904F2C442012120680BF003FAE9B258
:104E4000204600E001E0FFF703FD08F00800082815
:104E500005D1082106F5106000EB4510816008F0CF
:104E60001000102805D1102106F5106000EB451048
:104E7000816008F04000402805D1402106F510600F
:104E800000EB4510816008F0020002281DD1294680
:104E900058460BF0EFFC05EBC50101E025E01CE0F6
:104EA00004F13C0000EB810A9AF80300012806D1C6
:104EB00000208AF80300E9B2204600F0D8F9022168
:104EC00006F5106000EB4510816008F08000802836
:104ED00003D12946204604F033FC6D1C029840089B
:104EE0000290029800287FF461AF20680BF040FD2B
:104EF00000F00040B0F1004F1CD140F60400805992
:104F000020F0010140F60400815194F8F4040128D6
:104F100007D1002084F8F40400212046FFF764FC48
:104F200002E0204600F0D4FA2068406900F000401A
:104F30002168486120680BF01BFD00F40060B0F5AB
:104F4000006F0ED140F60800805900F0010010B14A
:104F5000204600F015FB2068406900F400602168DD
:104F6000486120680BF004FD00F48050B0F5805FCC
:104F70007ED140F60400805920F0010140F6040083
:104F80008151102120680BF075FC002732E04FF6AC
:104F90007F3106F5106000EB4710816006F5106068
:104FA00000EB4710006820F4001106F5106000EBDC
:104FB000471001604FF67F3106F5306000EB471077
:104FC000816006F5306000EB4710006820F40011A6
:104FD00006F5306000EB4710016006F5306000EB2D
:104FE0004710006840F0006106F5306000EB4710A4
:104FF00001607F1C6068B842C9D840F61C00805927
:1050000040F0011140F61C008151206B70B1D6F8C0
:10501000840840F00B01C6F8841840F6440080591B
:1050200040F00B0140F6440081510FE040F61400BF
:10503000805942F22B01084340F614018851081FA1
:10504000805940F00B014FF401608151D6F80008FF
:1050500020F4FE60C6F80008217C04F2C4422068F7
:105060000BF0F0F82068406900F48050216800E0FF
:1050700000E0486120680BF07BFC00F40050B0F5C4
:10508000005F17D120680AF0ABFD20680BF01EFC12
:10509000E06000F073FB0090227B206800990BF029
:1050A000EFFC204600F0FCF92068406900F4005055
:1050B0002168486120680BF05BFC00F008000828BC
:1050C00008D1204600F00BFA2068406900F0080083
:1050D0002168486120680BF04BFC00F080008028BC
:1050E00018D1DBF8180020F08000CBF8180001255B
:1050F0000DE005EBC50104F51F7000EB8100C078E1
:10510000012803D1E9B22046FFF7C9FB6D1C606896
:10511000A842EED820680BF02BFC00F48010B0F50C
:10512000801F2DD1012522E006F5106000EB45100F
:10513000D0F8009005EBC50104F13C0000EB8100C4
:105140000079012812D109F00040B0F1004F0DD1D3
:10515000012105EBC50204F13C0000EB8200C170A7
:10516000E8B240F080012046FFF799FB6D1C6068B3
:10517000A842D9D82068406900F4801021684861AD
:1051800020680BF0F5FB00F40010B0F5001F44D1CF
:10519000012538E006F5306000EB4510D0F80090AE
:1051A00005EBC50104F51F7000EB810000790128B3
:1051B00028D109F00040B0F1004F23D109F480302C
:1051C00094F8FC1401F0010188421BD1012105EB88
:1051D000C50204F51F7000EB8200C170DBF81800F7
:1051E00040F08000CBF81800DBF8140000F08000DD
:1051F00040B940F60400805940F4007140F60400C4
:10520000815103E06D1C6068A842C3D800BF2068CC
:10521000406900F400102168486120680BF0A8FB89
:1052200000F08040B0F1804F08D12046FFF709FB25
:105230002068406900F080402168486120680BF0D8
:1052400097FB00F0040004280FD12068D0F80490E8
:1052500009F00400042802D12046FFF719FB20685A
:10526000406840EA09002168486000BFA9E470B5C1
:1052700004460D462946D4F8080509F0CDFF70BD57
:1052800070B504460D462946D4F8080509F0E8FF34
:1052900070BD70B58AB0044614B901200AB070BD63
:1052A000266894F8BD0428B9002084F8BC04204680
:1052B00000F0A2F8032084F8BD04F06B00F48070C5
:1052C00008B90021216120680AF0C6FE282204F1F5
:1052D00010016846FBF707F894E80F000AF094FC09
:1052E00020B1022084F8BD040120D7E70021206806
:1052F0000BF073FB002531E0012105EBC50204F141
:105300003C0000EB8200417005EBC50104F13C005C
:1053100000F8215005EBC50100EB8100058100215B
:1053200005EBC50204F13C0000EB8200017105EBC6
:10533000C50204F13C0000EB8200C16005EBC50230
:1053400004F13C0000EB8200016105EBC50204F1B1
:105350003C0000EB82008161681CC5B26068A84215
:10536000CAD800252AE0002105EBC50204F51F700C
:1053700000EB8200417005EBC50104F51F7000F8D9
:105380002150002105EBC50200EB8200017105EB05
:10539000C50204F51F7000EB8200C16005EBC50279
:1053A00004F51F7000EB8200016105EBC50204F5F6
:1053B0001F7000EB82008161681CC5B26068A84262
:1053C000D1D8282204F110016846FAF78CFF94E83E
:1053D0000F000AF051FD20B1022084F8BD04012025
:1053E0005CE7002084F83800012084F8BD042068C0
:1053F0000AF030FD002051E710B586B004461421B4
:1054000001A8FAF789FF2068B0F1A04F42D100BF90
:10541000002000902048006840F001001E4908600C
:105420000846006800F00100009000BF00BF4FF484
:10543000C0500190022002900020039003200490AD
:105440000A20059001A91548FEF716FC00BF124876
:10545000001D006840F080000F49091D086000BF72
:10546000002000900C481430006840F480400A4945
:10547000143108600846006800F48040009000BFC6
:1054800000BF00BF002205214320FFF739F9432068
:10549000FFF726F906B010BD303802400000024088
:1054A00070B504460125E06808B9002506E0E0680B
:1054B000022801D1012501E0FDF76BF82946D4F857
:1054C000080509F076FFD4F8080509F01DFF70BD46
:1054D00010B50446D4F8080509F04CFF10BD10B50E
:1054E0000446D4F8080509F050FF10BD70B5044615
:1054F0000D4600BF94F8BC04012801D1022070BD04
:10550000012084F8BC0400BF84F838502946206884
:105510000BF097FA00BF002084F8BC0400BF00BF66
:10552000EDE710B5044604F2C441D4F8080509F0CB
:1055300057FF10BD70B50446256800BF94F8BC0441
:10554000012801D1022070BD012084F8BC0400BFF5
:10555000A06A012806D1A069012803D0A86B40F4F5
:105560008030A86320680BF053F920680AF060FCD3
:1055700000BF002084F8BC0400BF00BFE3E70000C8
:1055800010B50446D4F8080509F087FF2068D0F864
:10559000000E40F001002168C1F8000E206A28B119
:1055A0000348006840F006000149086010BD000093
:1055B00010ED00E070B504460D460CB9012070BD39
:1055C0005848006800F00700A84209D255490D70FC
:1055D0000846006800F00700A84201D00120EEE76D
:1055E000207800F0020002281DD1207800F004008D
:1055F000042805D14C48006840F4E0504A4908604E
:10560000207800F00800082805D14748006840F4D9
:105610006040454908604448006820F0F000A168F7
:10562000084341490860207800F00100A8B3606891
:10563000012807D13C4808380068C0F34040B8B999
:105640000120BCE76068022802D06068032807D107
:10565000354808380068C0F3406048B90120AEE71B
:10566000314808380068C0F3400008B90120A6E7B7
:105670002D48006820F00300616808432A4908604B
:10568000FEF702FC064609E0FEF7FEFB801B41F236
:105690008831884202D9032091E707E02248006858
:1056A00000F00C006168B0EB810FEDD11D4800687F
:1056B00000F00700A84209D91A490D700846006891
:1056C00000F00700A84201D0012078E7207800F020
:1056D0000400042807D11448006820F4E050E16871
:1056E000084311490860207800F00800082808D114
:1056F0000D48006820F46040216940EAC1000A4971
:10570000086000F061F808490968C1F30311074A0D
:10571000515CC8400649086006480068FEF75CFF17
:1057200000204CE7003C024008380240C45B0108FE
:10573000A00B0020BC0B00200F2202600D4A126853
:1057400002F0030242600B4A126802F0F00282602B
:10575000084A126802F4E052C260064A126802F473
:105760006042D2080261044A126802F007020A602D
:105770007047000008380240003C024001480068C1
:1057800070470000A00B002000B5FFF7F7FF0449A9
:105790000968C1F38221034A515CC84000BD000082
:1057A00008380240D45B010800B5FFF7E7FF044961
:1057B0000968C1F34231034A515CC84000BD000092
:1057C00008380240D45B01082DE9F0470024002589
:1057D0000026A1462548006800F00C0020B10428EE
:1057E00005D008283AD105E0DFF8849039E0DFF8E9
:1057F000849036E01D48001F006800F03F041B48FD
:10580000001F006800F4800078B11A481749091F8A
:105810000968C1F38811A0FB0170014622460023EC
:105820003846FAF72FFD05460EE011480F49091FCB
:105830000968C1F38811A0FB0170014622460023CC
:105840003846FAF71FFD05460848001F0068C0F3F8
:105850000140401C4600B5FBF6F902E0DFF810906D
:1058600000BF00BF4846BDE8F0870000083802408E
:105870000024F400001BB700F8B504460CB9012061
:10588000F8BD207800F00100002874D0F9480068C5
:1058900000F00C0004280DD0F648006800F00C0061
:1058A000082813D1F348001F006800F48000B0F509
:1058B000800F0BD1EF4808380068C0F34040002843
:1058C00059D06068002856D10120D9E700BF606830
:1058D000B0F5803F08D1E7480838006840F48030D0
:1058E000E449083908601EE06068B0F5A02F0DD1CA
:1058F000E0480838006840F48020DE490839086034
:105900000846006840F4803008600CE0D948083848
:10591000006820F48030D7490839086008460068DC
:1059200020F48020086000BF606890B1FEF7ACFAF8
:10593000054606E0FEF7A8FA401B642801D90320BB
:105940009EE7CC4808380068C0F340400028F1D0FA
:1059500011E0FEF799FA054606E0FEF795FA401BBE
:10596000642801D903208BE7C24808380068C0F3D7
:1059700040400028F1D1207800F0020002285FD1D9
:10598000BC48006800F00C0058B1BA48006800F04C
:105990000C0008281CD1B748001F006800F48000E4
:1059A000B0B9B44808380068C0F3400020B1E068DE
:1059B000012801D0012063E7AE480838006820F0D4
:1059C000F800216940EAC100AA490839086037E0B7
:1059D000E06800B30120A8490860FEF755FA0546C3
:1059E00006E0FEF751FA401B022801D9032047E7E1
:1059F000A04808380068C0F340000028F1D09D4856
:105A00000838006820F0F800216940EAC10099498F
:105A10000839086014E0002097490860FEF734FA5E
:105A2000054606E0FEF730FA401B022801D90320A4
:105A300026E7904808380068C0F340000028F1D1FC
:105A4000207800F0080008282CD16069A8B1012056
:105A50008A490860FEF718FA054606E0FEF714FAD0
:105A6000401B022801D903200AE782486C300068F5
:105A7000C0F340000028F1D014E000207F49086006
:105A8000FEF702FA054606E0FEF7FEF9401B022883
:105A900001D90320F4E677486C300068C0F3400079
:105AA0000028F1D1207800F00400042870D10027EC
:105AB00070483830006800F0805090B900BF002076
:105AC00000906C483830006840F0805069493831A7
:105AD00008600846006800F08050009000BF00BFDA
